:020000040800F2
:100000008064012055020008F1600008E514000832
:10001000ED600008090600084F68000800000000B5
:100020000000000000000000000000009D0100082A
:100030000D06000800000000F10100082964000816
:100040006F0200086F0200086F0200086F020008CC
:100050006F0200086F0200086F0200086F020008BC
:100060006F0200086F0200086F0200086F020008AC
:100070006F0200086F0200086F0200086F0200089C
:100080006F0200086F0200086F0200086F0200088C
:100090006F0200086F0200086F0200086F0200087C
:1000A0006F0200086F0200086F0200086F0200086C
:1000B0006F0200086F020008A16400086F020008C8
:1000C0006F0200086F0200086F0200086F0200084C
:1000D0006F020008316600086F0200086F02000816
:1000E0006F0200086F0200086F0200086F0200082C
:1000F0006F0200086F0200086F0200086F0200081C
:100100006F0200086F0200086F0200086F0200080B
:100110006F0200086F0200086F0200086F020008FB
:100120006F0200086F0200086F0200086F020008EB
:100130006F020008190800086F0200086F0200082B
:100140006F0200086F0200086F0200086F020008CB
:100150006F0200086F0200086F0200086F020008BB
:100160006F0200086F0200086F0200086F020008AB
:100170006F0200086F0200086F0200086F0200089B
:100180006F0200086F020008DFF80CD000F0F0F9F1
:100190000048004755A60008806401202A4B1968D2
:1001A0000868B0E8F04F80F30988BFF36F8F4FF015
:1001B000000080F3118870470000000006480068C6
:1001C000006880F3088862B661B6BFF34F8FBFF353
:1001D0006F8F00DF00BF00BF08ED00E0DFF80C000C
:1001E000016841F470010160704700BF88ED00E0D4
:1001F000EFF30980BFF36F8F134B1A681EF0100FD7
:1002000008BF20ED108A20E9F04F106008B44FF0CD
:10021000500080F31188BFF34F8FBFF36F8F12F040
:10022000E5F94FF0000080F3118808BC19680868F0
:10023000B0E8F04F1EF0100F08BFB0EC108A80F34A
:100240000988BFF36F8F704738030020EFF30580F4
:10025000704700000648804706480047FEE7FEE773
:10026000FEE7FEE7FEE7FEE7FEE7FEE7FEE7FEE766
:10027000396400088901000840EA01039B0703D0A4
:1002800009E008C9121F08C0042AFAD203E011F8D5
:10029000013B00F8013B521EF9D27047D2B201E097
:1002A00000F8012B491EFBD270470022F6E710B57B
:1002B00013460A4604461946FFF7F0FF204610BDD4
:1002C000421C10F8011B0029FBD1801A704710B5A1
:1002D000002200E0521C835C8C5CA34201D1002B05
:1002E000F8D1D8B2E1B2401A10BD30B504460020B2
:1002F000034600E05B1C934203D2E05CCD5C401BF4
:10030000F8D030BD2DE9FE4F81EA030404F000442B
:1003100021F0004100944FF0000B23F0004350EA1D
:1003200001045ED052EA03045BD0C3F30A54C1F364
:100330000A552C44A4F2F3340194A0FB0254C1F3F7
:10034000130141F48011C3F3130343F4801301FB41
:10035000024400FB034E840A970A44EA815447EAA8
:100360008357A4FB076802958D0A05FB07854FEAB2
:10037000932C04FB0C542705029D4FEA065847EACC
:100380001637B5EB08056EEB070C870E920E47EAA1
:10039000811742EA8312A7FB0201B6EB0B0164EB63
:1003A00000042B0D43EA0C335E1844EB1C50DA4674
:1003B0005146E7FB0201C5F313044FEA0B3343EA4E
:1003C00014534FEA0432019C43EA0603A4F10C04DF
:1003D0000294009CCDE900B400F07CF803B0BDE8C5
:1003E000F08F00200146F9E70EB540F2334102914B
:1003F0000021CDE900110A460B4600F06BF803B06E
:1004000000BDC1F30A5210B5C1F3130140F2FF332E
:1004100041F480119A4201DA002010BD40F23343CA
:100420009A42A2F2334203DC524200F034F810BD8B
:10043000904010BD2DE9F05F0546002092469B4696
:1004400088460646814640241BE0284641464746EA
:10045000224600F020F853465A46C01A914110D364
:1004600011461846224600F095F82D1A67EB010850
:100470004F4622460120002100F08CF817EB0009BE
:100480004E41201EA4F10104DFDC484631462A46D5
:100490004346BDE8F09F202A04DB203A21FA02F00F
:1004A0000021704721FA02F3D040C2F120029140AE
:1004B00008431946704710B5141E73F1000408DA9A
:1004C000401C41F1000192185B411A4301D120F018
:1004D000010010BD2DE9F04D92469B4611B1B1FAD5
:1004E00081F202E0B0FA80F22032904600F052F839
:1004F00004460F4640EA0A0041EA0B0153465A46B9
:10050000084313D0114653EA010019D0C8F1400244
:100510005046FFF7C0FF05460E4650465946424634
:1005200000F038F8084305D0012004E020463946A1
:10053000BDE8F08D0020054346EAE0762C433743C2
:100540000A986305E40AA0EB08000022FD0A44EAC9
:1005500047540A3002D500200146E9E70105101989
:100560006941DDE9084500196941BDE8F04DA2E7A0
:10057000064C074D06E0E06840F0010394E80700F0
:1005800098471034AC42F6D3FFF702FE54510108ED
:1005900074510108202A04DB203A00FA02F10020FD
:1005A00070479140C2F1200320FA03F319439040B1
:1005B000704770B58C1810F8015B15F0070301D176
:1005C00010F8013B2A1106D110F8012B03E010F8B6
:1005D000016B01F8016B5B1EF9D12B0705D40023D9
:1005E000521E0DD401F8013BFAE710F8013BCB1A7B
:1005F000921C03E013F8015B01F8015B521EF9D570
:10060000A142D8D3002070BD00BFFEE7704708B5F7
:100610003D208DF8000006208DF8010000208DF8A7
:10062000020001208DF80300684605F063FD08BD57
:1006300001494861704700000090024029B1064A14
:10064000D2690243044BDA6104E0034AD26982436F
:10065000014BDA61704700000090024030B1074959
:10066000896941F00201054A916105E00349896900
:1006700021F00201014A91617047000000900240A0
:1006800070B50C4613460021124D286000BF18E0DB
:1006900000EB41124FF00045156044F2F4555560EF
:1006A000C1EBC11505EB450504EB850595605D1EA5
:1006B0008D4204D900EB41152035D56000E0D060B3
:1006C000491C9942E4D3044DE860044D044E356062
:1006D00070BD00005C0000200090024084040020F7
:1006E0006000002030B10749896941F40051054A92
:1006F000916105E00349896921F40051014A916142
:10070000704700000090024030B50C4613460021AF
:100710000F4D286000BF15E000EB41124FF480152B
:100720001560C1EBC11505EB450504EB850595602A
:100730005D1E8D4204D900EB41152035D56000E0E7
:10074000D060491C9942E7D3024D286130BD0000BA
:10075000580000200090024002680A43026070477F
:1007600010B50121480605F01BFD00214FF0007077
:1007700005F016FD10BD01B581B000200090019874
:10078000009002E00098401E009000980028F9D1E7
:100790000CBD000008B5002000900848806940F4B6
:1007A0008010064988610846806900904FF6FF7006
:1007B000FFF7E1FF01490098886108BD0090024001
:1007C00001480068806870475800002001460868AA
:1007D000C0F30D40704700B502460023106800F0DA
:1007E000004058B9106800F4004038B9106800F4AF
:1007F000807018B11046FFF7E9FF0346184600BDA8
:1008000000200449096801F0010109B1012000E05C
:10081000002070470090024010B501E009F0E2FEB0
:1008200006480068FFF7D7FF0028F7D14020FFF700
:10083000FFFE4FF48030FFF7FBFE10BD5C00002090
:100840002DE9F04188B004460F464FF0000800251E
:1008500000200790B94E029001200190B848056928
:1008600025F01C0503A805F0DBFC049EB548864274
:1008700005D3B548864202D245F008051AE0B248D1
:10088000864205D3AD48864202D245F00C0511E000
:10089000AA48864203D3AD48864200D20AE0AB485C
:1008A000864205D3AA48864202D245F0040501E0FB
:1008B00045F01005A24805614FF40042002138467A
:1008C00000F072FB10B9002001906AE0A148FFF728
:1008D00052FF2068002850D000BF0298401C0290B0
:1008E0000121384600F034FA00F0040018B99A49A2
:1008F00002988842F1D398490298884202D1002098
:1009000001904EE0002002904FF4805200213846C2
:1009100000F04AFB08B90020019000BF0298401C7B
:1009200002900121384600F013FA00F0200018B9B7
:10093000894902988842F1D387490298884202D1B6
:10094000002001902DE0002002901F21384600F089
:10095000FFF9804608F0100018B14FF400602062E3
:1009600001E00020206208F0040010B10020606166
:1009700016E04FF48040606112E0206AC0F3CF00BF
:100980006169C1F34F0140EA01020021384600F0DD
:100990000BFB08B9002001906FF07F40FFF7EBFEE2
:1009A00000BF019820B94FF400602062C000606170
:1009B0006348056869480540D4E901010843E168D6
:1009C00008432169084361690843A1690843E16953
:1009D0000843216A0843616A0843A16A0843E16A3F
:1009E0000843216B0843616B084305435448056085
:1009F00005684FF6FF70FFF7BEFE51480560D4E969
:100A00000E010843216C0843616C0843A16C084344
:100A1000E16C0843216D0843616D08434849486013
:100A2000084645684FF6FF70FFF7A5FE444845604D
:100A30004349A06D8860E06DC860084685694FF63F
:100A400041700540B4F86010606E40EA0140A16E4C
:100A50000843E16E0843216F0843616F0843054373
:100A60003748856185694FF6FF70FFF784FE34488B
:100A70008561D4E91E0108433149C8610846C5694A
:100A80004FF6FF70FFF777FE2D48C5613448856942
:100A900034480540D4E920010843D4F888100843BD
:100AA000D4F88C100843D4F890100843D4F894106C
:100AB0000843D4F898100843D4F89C100843D4F89D
:100AC000A010084305432648856185694FF6FF70ED
:100AD000FFF751FE22488561D4E929010843D4F883
:100AE000AC100843D4F8B0100843D4F8B41040EA6E
:100AF0008100D4F8B810084340F400001849086099
:100B0000084605684FF6FF70FFF735FE144805608C
:100B1000006840F0800012490860084605684FF6FA
:100B2000FF70FFF728FE0E4805600198012802D1EA
:100B300008B0BDE8F0810020FAE7000000879303C9
:100B400000800240002D3101C00E160200E1F505C3
:100B500080D1F008FFFF0F00FFFF04000F8120FF8E
:100B600000900240233FDEF810B50B794C7943EA40
:100B70000422094B03441A64CB781B068C7843EAA1
:100B800004434C7843EA04230C7843EA0402024B02
:100B900003445A6410BD00000080024010B5B0B09C
:100BA00001214FF0606005F0EBFAFFF7D9FD00F08E
:100BB00053F900BFFFF724FE0128FBD001A800F085
:100BC00065F901200190002008904FF400700B900F
:100BD00000200C900F901290149015901690219078
:100BE0004FF0007022900011249000202690279052
:100BF00004202990C0052A9040122B9080012C904F
:100C000040122D9040002F90002101A8FFF718FE00
:100C1000C4B2012C03D101210248FFF70FFD204689
:100C200030B010BD4000010038B5044600200090EF
:100C300034B10C48006840F004000A49086005E03F
:100C40000848006820F0040006490860054800686C
:100C500000904FF6FF70FFF78EFD02490098086084
:100C600038BD00000080024038B5044600200090E6
:100C700034B10C48006840F008000A49086005E0FB
:100C80000848006820F00800064908600548006828
:100C900000904FF6FF70FFF76EFD02490098086064
:100CA00038BD00000080024010B50A4801680120EC
:100CB0000AF0CCF80848016801200AF0C7F8074894
:100CC000016801200AF0C2F80548016801200AF015
:100CD000BDF810BD2C0000203000002034000020A2
:100CE0003800002010B5A02101200AF0C1F81449F5
:100CF0000860A02101200AF0BBF81249086041F603
:100D0000C45101200AF0B4F80F49086041F6C451FB
:100D100001200AF0ADF80D4908600948006840B1AB
:100D20000848006828B10848006810B10846006803
:100D300018B9FFF7B9FF012010BD0020FCE7000043
:100D40002C0000203000002034000020380000205B
:100D500018B502460B460021002000901548016995
:100D600001F01C014FF4784000EAC22001434FF427
:100D7000F86000EA8310014321F0020141F0010113
:100D80000C48016100BF0098401C009009480169AF
:100D900001F0010018B1084C0098A042F3D3064CB2
:100DA0000098A04201D1002018BD0248406980B2DD
:100DB000FAE7000000800240FFFF04001EB500219A
:100DC0000022009201920292214A1268126802F0F7
:100DD000004282B1002200921E4A526902F0800253
:100DE00022B180221B4B5A6100229A609DE81C00B0
:100DF00080E81C001EBD164A1268126802F4004208
:100E0000B2B9134A1268126802F4807282B1104AB1
:100E10001268126802F4007252B10D4A1268126828
:100E2000C2F30D42111F0A4A12689268019200E053
:100E300000210091064A12680292054A1268D2689F
:100E4000034B1A609DE81C0080E81C0000BFD1E73E
:100E50005C000020009002400348006840F0010060
:100E600001490860704700000090024010B5012061
:100E7000FFF7FAFE0120FFF7D7FEFFF78BFC0120FA
:100E8000FFF730FC0120FFF7E9FB10BD01210160F5
:100E9000002141608160C16001614FF48041416186
:100EA00000218161C1614FF4006101620021416252
:100EB0008162C162016341638163C1634021016456
:100EC0002021416400218164C1640165416581651F
:100ED000C16501668021416600218166C1660167A6
:100EE00041678167C1674FF08061C0F88010491089
:100EF000C0F884100021C0F888104FF40011C0F829
:100F00008C100021C0F89010C0F89410C0F8981010
:100F1000C0F89C10C0F8A0104FF00071C0F8A410E9
:100F20004912C0F8A8108901C0F8AC104912C0F8E5
:100F3000B0100021C0F8B410C0F8B810704700001D
:100F4000014617480068006800F0004008B1002022
:100F50007047C1F30C00124A1268506010480068D4
:100F6000006840F040500E4A126810600C4800685B
:100F7000006840F000400A4A126810600948406961
:100F800000F0040020B10420064A506100205060A7
:100F900003480068C068024A10600120D8E70000DA
:100FA000580000200090024038B503460C4600214E
:100FB000002000901448016901F01C014FF47840B2
:100FC00000EAC32001434FF4F86000EA84100143B3
:100FD00041F0020141F001010B484261016100BF93
:100FE0000098401C00900848016901F0010018B108
:100FF000064D0098A842F3D3044D0098A84201D1B1
:10100000002038BD0120FCE700800240FFFF040003
:1010100051B18200A2F1C042126842F00103820085
:10102000A2F1C042136009E08200A2F1C04212683E
:10103000034B1A408300A3F1C0431A6070470000BD
:10104000FEFF0F00D0E901121143C268114302698B
:1010500011434269114382691143C2691143026A13
:101060001143426A1143826A1143C26A1143026BFF
:10107000114302689200A2F1C04211608168082900
:101080000BD101688900A1F1C041096841F040021B
:1010900001688900A1F1C0410A60416B0968426B97
:1010A000526841EA0211426B926841EA0221426BA6
:1010B000928941EA0241426B128A41EA0251426B33
:1010C000127D41EA0261426B926911430268521C2F
:1010D0009200A2F1C0421160C16AB1F5804F1BD1EC
:1010E000816B0968826B526841EA0211826B9268D7
:1010F00041EA0221826B128A41EA0251826B127D1F
:1011000041EA0261826B9269114302689200A2F186
:10111000C042C2F8041107E06FF070420168890014
:10112000A1F1C041C1F804217047000000B599B099
:1011300001217A2005F024F80121084605F040F845
:101140004FF40040179001208DF8600000208DF8CA
:10115000620002208DF8610001208DF8630017A95C
:10116000A04800F049F94FF63370179002208DF82F
:10117000600000208DF8620003208DF861000120DE
:101180008DF8630017A9984800F036F94FF6837080
:10119000179002208DF8600000208DF86200032077
:1011A0008DF8610001208DF8630017A98F4800F0C9
:1011B00023F94FF23F00179002208DF860000020C5
:1011C0008DF8620003208DF8610001208DF8630026
:1011D00017A9874800F010F940F23F40179002200D
:1011E0008DF8600000208DF8620003208DF861000A
:1011F00001208DF8630017A97E4800F0FDF80C224D
:101200000021794800F040F90C220121764800F0D5
:101210003BF90C220421744800F036F90C22052118
:10122000714800F031F90C2208216F4800F02CF9C8
:101230000C2209216C4800F027F90C220A216A4887
:1012400000F022F90C220B21674800F01DF90C2256
:101250001146654800F018F90C220D21624800F093
:1012600013F90C220E21604800F00EF90C220F2118
:101270005D4800F009F90C2200215C4800F004F9F7
:101280000C220121594800F0FFF80C220721574891
:1012900000F0FAF80C220821544800F0F5F80C226E
:1012A0000921524800F0F0F80C220A214F4800F0C2
:1012B000EBF80C220B214D4800F0E6F80C22114609
:1012C0004A4800F0E1F80C220D21484800F0DCF813
:1012D0000C220E21454800F0D7F80C220F2143487C
:1012E00000F0D2F80C220021414800F0CDF80C2289
:1012F00001213F4800F0C8F80C2202213C4800F0D0
:10130000C3F80C2203213A4800F0BEF80C22042155
:10131000374800F0B9F80C220521354800F0B4F840
:101320000C221146324800F0AFF80C220D21304853
:1013300000F0AAF80C220E212D4800F0A5F80C228E
:101340000F212B4800F0A0F80C220021294800F0C2
:101350009BF80C220121274800F096F80C2202216C
:10136000244800F091F80C220321224800F08CF868
:101370000C2204211F4800F087F80C2205211D488B
:1013800000F082F80C220A211A4800F07DF80020B3
:101390000190029008200390002004900590069090
:1013A000079004200890002009900A9010200B90CC
:1013B00000200C900E900D900F9010904FF48050E4
:1013C0001190002012901390149001A8159016907F
:1013D00008A8FFF737FE01210420FFF719FE19B016
:1013E00000BD000000040240000C0240001002405A
:1013F0000014024000180240F0B50A460021002304
:10140000002400BF3DE0012505FA01F3156805EA57
:1014100003049C4234D105684F000326BE40B54307
:10142000056015794E00B5400668354305601579AD
:10143000012D02D01579022D16D185684F000326A3
:10144000BE40B543856055794E00B540866835434A
:101450008560456801268E40B543456045689679AC
:101460008E40B6B235434560C5684F000326BE4086
:10147000B543C560D5794E00B540C6683543C560F3
:10148000491C1029BFD3F0BDF0B5002300244D073F
:10149000ED0E02FA05F3CE1000F1200555F82650A6
:1014A0004E07F70E0F26BE40B543CF1000F12006C1
:1014B00046F82750CE1000F1200555F8265045EA91
:1014C0000304CE1000F1200545F82640F0BD024689
:1014D000002013690B400BB1012000E00020704791
:1014E0000183704700BFFEE71CB50121112004F005
:1014F00047FE1C20009000208DF8040003208DF88A
:10150000050001208DF8070069460648FFF774FFC3
:101510000120009002208DF8070069460248FFF77D
:101520006BFF1CBD001002400000024010B50446D5
:1015300014B101202C4908702B480078002837D0BE
:1015400010212A48FFF7C3FF78B108212748FFF789
:10155000BEFF50B104212548FFF7B9FF28B1012192
:101560002348FFF7B4FF012822D10A2005F00EFC22
:1015700000201D49087010211C48FFF7A8FF08B97A
:10158000012010BD08211948FFF7A1FF08B902206A
:10159000F7E704211548FFF79AFF08B90320F0E7A1
:1015A00001211348FFF793FF01281BD10420E8E72E
:1015B00010210E48FFF78BFF012813D108210B489B
:1015C000FFF785FF01280DD104210848FFF77FFFB1
:1015D000012807D101210648FFF779FF10B9012042
:1015E000014908700020CCE72400002000100240D0
:1015F000000002401CB5002401214D2004F0C0FD74
:101600000121880304F0FCFD012004F07DFE86200A
:10161000009003208DF8050002208DF804000020C2
:101620008DF806008DF8070069463148FFF7E4FEA3
:101630000B2201212E48FFF727FF0B2202212C4805
:10164000FFF722FF0B2207212948FFF71DFF322059
:10165000009069462748FFF7CFFE0B22012125485D
:10166000FFF712FF0B2204212248FFF70DFF0B2288
:1016700005212048FFF708FF4FF4D040009069464D
:101680001D48FFF7B9FE0B2211461B48FFF7FCFE71
:101690000B220D211848FFF7F7FE0B220E211648EA
:1016A000FFF7F2FE0820009003208DF805000120CE
:1016B0008DF8040000208DF806008DF807006946BB
:1016C0000E48FFF799FE00200D490860322005F012
:1016D0005DFB01200B49C1F88C02FEF798FFFFF774
:1016E0005DFA04460CB901201CBD0020FCE7000097
:1016F000000002400008024000180240000C0240B6
:101700008C8241420080414230B5014601F01F0405
:10171000C1F34513CA0AE50205EB43151544A8B207
:1017200030BD000070B50446002617480588408883
:1017300045431548808846F60401884216D1124870
:101740008079012812D100200F4988712A20488110
:101750002B2088810021084604F020FA01200A4944
:1017600088712B2048812A20888103E000210846C7
:1017700004F014FA04F06EFC002602E00348048032
:10178000761CAE42FAD370BDAC0300208000006C22
:1017900010B50446002C66D16C498871F020088091
:1017A0004FF4A07048800846808849F24131884251
:1017B0000BD06648808846F60401884205D063480D
:1017C000808845F2103188421AD12C205F49088167
:1017D0002A2048812B2088810846808846F604010B
:1017E000884205D05948808845F21031884206D198
:1017F0004FF4A070554908804FF4F0704880A1E084
:101800005248808845F21051884210D14FF4305030
:101810004E4908814FF4285048814FF42C5088815C
:101820004FF4F07008804FF4487048808AE04748D1
:10183000808841F6631188420DD12C2043490881EC
:101840002B2048812A2088814FF4F07008804FF4C3
:101850004870488076E022203C4908812020488159
:10186000212088816EE00120384988714FF4A070F2
:101870000880F02048800846808849F2413188423B
:1018800005D03248808845F21031884207D12C209B
:101890002E4908812A2048812B2088813FE02B484F
:1018A000808846F60401884207D12C202749088108
:1018B0002B2048812A20888131E02448808845F205
:1018C0001051884210D14FF43050204908814FF414
:1018D000285048814FF42C5088814FF4487008807C
:1018E0004FF4F07048801AE01848808841F6631180
:1018F00088420DD12C20154908812A2048812B20AF
:1019000088814FF4487008804FF4F070488006E0FA
:1019100022200E49088121204881202088810B48FF
:10192000808846F60401884205D00848808845F240
:101930001031884206D14FF4F070044908804FF40A
:10194000A0704880002003F0B3FF10BDAC0300205E
:101950002DE9FF4F84B081468A4600200390029013
:101960000698A0EB09050798A0EB0A06CDF80490AD
:10197000CDF800A0002D01DD012705E00DB90027FD
:1019800002E04FF0FF376D42002E02DD4FF00108FC
:1019900006E016B94FF0000802E04FF0FF3876423B
:1019A000B54201DD2C4600E034464FF0000B21E04B
:1019B000009A91B2019A90B200F022F8039828445C
:1019C00003900298304402900398A04205DD0398EA
:1019D000001B03900198384401900298A04205DD55
:1019E0000298001B02900098404400900BF1010007
:1019F0001FFA80FB601C8345DADD08B0BDE8F08F7C
:101A000030B504460D462946204604F0C7F804F0D8
:101A100021FB024800880249088030BD26000020D2
:101A20008000006CF0B504460D4616461F462B4656
:101A3000324629462046FFF78BFF3B462246294681
:101A40002046FFF785FF3B46324639462046FFF7E2
:101A50007FFF3B46324629463046FFF779FFF0BD0F
:101A60002DE9F04306460F469046002445460320E4
:101A7000A0EB48093CE07A1B91B2321990B2FFF713
:101A8000BFFF3A1B91B2721990B2FFF7B9FF3A1932
:101A900091B2721990B2FFF7B3FF7A1991B232196D
:101AA00090B2FFF7ADFF7A1991B2321B90B2FFF7F7
:101AB000A7FF3A1991B2721B90B2FFF7A1FF7A1BF0
:101AC00091B2321B90B2FFF79BFF3A1B91B2721B8F
:101AD00090B2FFF795FF641CB9F1000F03DAA00084
:101AE000801D814404E0601B80000A3081446D1E2B
:101AF000AC42C0DDBDE8F08370B504460D46164625
:101B00005B48808849F24131884205D05848808836
:101B100045F21031884214D15549488904F08EFAB3
:101B2000201204F07FFAE0B204F07CFA5049888970
:101B300004F084FA281204F075FAE8B204F072FA9C
:101B40008CE04B48808845F21051884220D14849AA
:101B5000488904F073FA201204F064FA4449498970
:101B6000491C88B204F06AFAE0B204F05BFA40491A
:101B7000888904F063FA281204F054FA3C498989F0
:101B8000491C88B204F05AFAE8B204F04BFA65E056
:101B90003748808841F66311884228D134488079DB
:101BA00020B933480088401E001B84B23049488960
:101BB00004F044FA201204F035FAE0B204F032FAEC
:101BC000201204F02FFAE0B204F02CFA2849888998
:101BD00004F034FA281204F025FAE8B204F022FAEC
:101BE000281204F01FFAE8B204F01CFA36E020488C
:101BF000808846F6040188421DD11D48807901285D
:101C000004D11B480088401E001B84B21849488933
:101C100004F014FA201204F005FAE0B204F002FA1B
:101C20001349888904F00AFA281204F0FBF9E8B293
:101C300004F0F8F912E00E488079012804D10C482C
:101C40000088401E001B84B209494889214604F0DF
:101C50000BFA07498889294604F006FA04480089E6
:101C6000044908804FF0D840A0F8806070BD0000A3
:101C7000AC0300207E00006C2DE9FC4F05460E46AB
:101C800017469846DDF82C90002001902748808860
:101C900046F60401884229D124488079012825D1BB
:101CA000AB46354621480088C01B401E86B24746D9
:101CB0001E480088A0EB0B00401E1FFA80F8002091
:101CC0001A4988712A2048812B20888143463A4648
:101CD00031462846CDF80090FFF7CEFF012013498A
:101CE00088712B2048812A2088811DE0781B401CA8
:101CF00080B20190344615E02146284603F04EFF9D
:101D000004F0A8F94FF0000A07E04FF0D840A0F81F
:101D100080900AF101001FFA80FA01988245F4DBF5
:101D2000601C84B24445E7DDBDE8FC8FAC030020B5
:101D300000B5A1B00020209001217A2004F020FA03
:101D40000121084604F03CFA4FF400401E900120A7
:101D50008DF87C0000208DF87E0002208DF87D003B
:101D600001208DF87F001EA9FE48FFF745FB4CF2CD
:101D700033701E9002208DF87C0000208DF87E00CC
:101D800003208DF87D0001208DF87F001EA9F64804
:101D9000FFF732FB4FF680701E9002208DF87C001A
:101DA00000208DF87E0003208DF87D0001208DF845
:101DB0007F001EA9ED48FFF71FFB4FF480501E90D7
:101DC00002208DF87C0000208DF87E0003208DF825
:101DD0007D0001208DF87F001EA9E548FFF70CFB70
:101DE0004FF480501E9002208DF87C0000208DF86A
:101DF0007E0003208DF87D0001208DF87F001EA954
:101E0000DC48FFF7F9FA0C220021D748FFF73CFB2A
:101E10000C220121D448FFF737FB0C220421D248C1
:101E2000FFF732FB0C220521CF48FFF72DFB0C22D8
:101E30000821CD48FFF728FB0C220921CA48FFF7EB
:101E400023FB0C220A21C848FFF71EFB0C220E219F
:101E5000C548FFF719FB0C220F21C348FFF714FBFD
:101E60000C220721C148FFF70FFB0C220821BF48B5
:101E7000FFF70AFB0C220921BC48FFF705FB0C22E7
:101E80000A21BA48FFF700FB0C220B21B748FFF7E5
:101E9000FBFA0C221146B548FFF7F6FA0C220D2189
:101EA000B248FFF7F1FA0C220E21B048FFF7ECFA26
:101EB0000C220F21AD48FFF7E7FA0C221146AC487F
:101EC000FFF7E2FA0C221146AA48FFF7DDFA0F20CD
:101ED0000890002009903C200A9000200B900C9064
:101EE0000D900E9009200190002002900820039090
:101EF0000020049005900690079006200F90002087
:101F000010901190102012900020139015901490B2
:101F1000169017904FF480501890002019904FF4AD
:101F200080401A9000201B9008A81C9001A81D90CA
:101F30000FA8FFF787F801210620FFF769F8322084
:101F400004F024FF0121002004F08EF8322004F078
:101F50001DFF002003F070FC8749888008468088B8
:101F6000FF280ADB084680884FF6FF71884204D0BC
:101F700081488088B0F5134F7ED1D32004F05EF8FD
:101F800003F09AFB7C49888003F096FB7A498880AD
:101F900003F092FB78498880084680884FF6FF71ED
:101FA00001EA00207449888003F086FB7249898821
:101FB0000843714988800846808849F24131884247
:101FC0005AD0BF2004F03AF803F076FB6A498880C3
:101FD00003F072FB6849888003F06EFB66498880D5
:101FE00003F06AFB64498880084680884FF6FF71D9
:101FF00001EA00206049888003F05EFB5E49898821
:1020000008435D4988800846808846F60401884276
:102010007AD0D42004F012F803F04EFB56498880A1
:1020200003F04AFB5449888003F046FB52498880FC
:10203000084680884FF6FF7101EA00204E498880EB
:1020400003F03AFB4C49898808434B49888008468D
:10205000808845F21031884256D04FF45A4003F040
:10206000EDFF03F029FB444988804FF45B4003F007
:10207000E5FF03F021FB00E046E03F498880084689
:1020800080884FF6FF7101EA00203B4988804FF4B9
:102090005C4003F0D3FF03F00FFB37498988084306
:1020A0003549888008468088B0F5004F02D145F256
:1020B000105088803048808845F21051884223D0E3
:1020C000A12003F0BBFF03F0F7FA2B49888003F04F
:1020D000F3FA29498880084680884FF6FF7101EAA3
:1020E00000202549888003F0E7FA234989880843BE
:1020F000214988800846808845F26171884203D171
:1021000041F663101C4988801B48808849F24131A0
:10211000884211D01848808845F2103188420BD08F
:102120001548808845F21051884205D012488088B1
:1021300041F6631188422DD11048006820F00F004D
:102140004FF02041C1F81C010846D0F81C0120F4D2
:102150007060C1F81C010846D0F81C0140F0030073
:102160000EE0000000040240000C0240001002409B
:102170000014024000180240AC0300201C0100A023
:10218000C1F81C010846D0F81C0140F40070C1F8E9
:102190001C0128E0FE48808846F60401884205D0EC
:1021A000FB4880884CF2055188421CD1F9480068F0
:1021B00020F00F004FF02041C1F81C010846D0F874
:1021C0001C0120F47060C1F81C010846D0F81C0105
:1021D00040F00A00C1F81C010846D0F81C0140F488
:1021E0004060C1F81C01EA488188EBA004F032FB92
:1021F000E748808849F2413188427CD1CF2003F002
:102200001DFF002003F00EFFC12003F00BFF302064
:1022100003F008FFED2003F011FF642003F002FF3C
:10222000032003F0FFFE122003F0FCFE812003F0E8
:10223000F9FEE82003F002FF852003F0F3FE1020F2
:1022400003F0F0FE7A2003F0EDFECB2003F0F6FE63
:10225000392003F0E7FE2C2003F0E4FE002003F019
:10226000E1FE342003F0DEFE022003F0DBFEF72067
:1022700003F0E4FE202003F0D5FEEA2003F0DEFEAA
:10228000002003F0CFFE002003F0CCFEC02003F0BE
:10229000D5FE1B2003F0C6FEC12003F0CFFE0120B7
:1022A00003F0C0FEC52003F0C9FE302003F0BAFEE3
:1022B000302003F0B7FEC72003F0C0FEB72003F0C4
:1022C000B1FE362003F0BAFE482003F0ABFE3A2000
:1022D00003F0B4FE552003F0A5FEB12003F0AEFEDE
:1022E000002003F09FFE1A2003F09CFEB62003F0AE
:1022F000A5FE0A2000E099E003F094FEA22003F07E
:1023000091FEF22003F09AFE002003F08BFE2620BF
:1023100003F094FE012003F085FEE02003F08EFE22
:102320000F2003F07FFE2A2003F07CFE282003F01C
:1023300079FE082003F076FE0E2003F073FE0820DD
:1023400003F070FE542003F06DFEA92003F06AFE36
:10235000432003F067FE0A2003F064FE0F2003F021
:1023600061FE002003F05EFE002003F05BFE002013
:1023700003F058FE002003F055FEE12003F05EFE5E
:10238000002003F04FFE152003F04CFE172003F051
:1023900049FE072003F046FE112003F043FE06200D
:1023A00003F040FE2B2003F03DFE562003F03AFEE2
:1023B0003C2003F037FE052003F034FE102003F02C
:1023C00031FE0F2003F02EFE3F2003F02BFE3F20B6
:1023D00003F028FE0F2003F025FE2B2003F02EFE35
:1023E000002003F01FFE002003F01CFE012003F07C
:1023F00019FE3F2003F016FE2A2003F01FFE0020E6
:1024000003F010FE002003F00DFE002003F00AFE92
:10241000EF2003F007FE112003F010FE782004F0F7
:10242000B5FC292003F00AFE03F02AB95848808839
:1024300046F6040188427CD1112003F0FFFD1420F0
:1024400004F0A4FCD02003F0F9FD072003F0EAFD1E
:10245000422003F0E7FD1D2003F0E4FDD12003F04E
:10246000EDFD002003F0DEFD1A2003F0DBFD092066
:1024700003F0D8FDD22003F0E1FD012003F0D2FDEE
:10248000222003F0CFFDC02003F0D8FD102003F080
:10249000C9FD3B2003F0C6FD002003F0C3FD022070
:1024A00003F0C0FD112003F0BDFDC52003F0C6FD03
:1024B000032003F0B7FDC82003F0C0FD002003F0A7
:1024C000B1FD252003F0AEFD212003F0ABFD05207A
:1024D00003F0A8FD002003F0A5FD0A2003F0A2FDF3
:1024E000652003F09FFD252003F09CFD772003F07D
:1024F00099FD502003F096FD0F2003F093FD00207E
:1025000003F090FDF82003F099FD012003F08AFD0F
:10251000FE2003F093FD002003F084FD022003F071
:1025200081FD202003F08AFD362003F087FD08207E
:1025300000E039E003F076FD3A2003F07FFD5520FE
:1025400003F070FD2B2003F079FD002003F06AFDFD
:10255000002003F067FD012003F064FD3F2003F03D
:1025600061FD2A2003F06AFD002003F05BFD0020DE
:1025700003F058FD012003F055FDDF2003F052FD6C
:10258000782004F003FC292003F058FD4CE70000FC
:10259000AC0300201C0100A0204C43442049443AD5
:1025A00025780D0A00000000FE48808845F21031B1
:1025B000884240F07C87ED2003F040FD012003F0CD
:1025C00031FDFE2003F02EFDEE2003F037FDDE206E
:1025D00003F028FD212003F025FDF12003F02EFD5E
:1025E000012003F01FFDDF2003F028FD102003F081
:1025F00019FDC42003F022FD8F2003F013FDC62037
:1026000003F01CFD002003F00DFDE22003F00AFDA5
:10261000E22003F007FDE22003F004FDBF2003F0F9
:102620000DFDAA2003F0FEFCB02003F007FD0D20F5
:1026300003F0F8FC002003F0F5FC0D2003F0F2FCA1
:10264000002003F0EFFC112003F0ECFC002003F06D
:10265000E9FC192003F0E6FC002003F0E3FC212054
:1026600003F0E0FC002003F0DDFC2D2003F0DAFC99
:10267000002003F0D7FC3D2003F0D4FC002003F041
:10268000D1FC5D2003F0CEFC002003F0CBFC5D20EC
:1026900003F0C8FC002003F0C5FCB12003F0CEFC21
:1026A000802003F0BFFC002003F0BCFC8B2003F073
:1026B000B9FC002003F0B6FC962003F0B3FC002028
:1026C00003F0B0FCB22003F0B9FC002003F0AAFC38
:1026D000002003F0A7FC022003F0A4FC002003F07C
:1026E000A1FC032003F09EFC002003F09BFCB32020
:1026F00003F0A4FC002003F095FC002003F092FC02
:10270000002003F08FFC002003F08CFC002003F07D
:1027100089FC002003F086FC002003F083FC0020ED
:1027200003F080FC002003F07DFC002003F07AFC25
:10273000002003F077FC002003F074FC002003F07D
:1027400071FC002003F06EFC002003F06BFC002005
:1027500003F068FC002003F065FC002003F062FC3D
:10276000002003F05FFC002003F05CFC002003F07D
:1027700059FC002003F056FC002003F053FC00201D
:1027800003F050FCB42003F059FC8B2003F04AFC0A
:10279000002003F047FC962003F044FC002003F0E7
:1027A00041FCA12003F03EFC002003F03BFCB520DF
:1027B00003F044FC022003F035FC002003F032FC5F
:1027C000032003F02FFC002003F02CFC042003F076
:1027D00029FC002003F026FCB62003F02FFC00208B
:1027E00003F020FC002003F01DFCB72003F026FCC2
:1027F000002003F017FC002003F014FC3F2003F03E
:1028000011FC002003F00EFC5E2003F00BFC002006
:1028100003F008FC642003F005FC002003F002FC38
:102820008C2003F0FFFB002003F0FCFBAC2003F046
:10283000F9FB002003F0F6FBDC2003F0F3FB0020A3
:1028400003F0F0FB702003F0EDFB002003F0EAFB47
:10285000902003F0E7FB002003F0E4FBEB2003F003
:10286000E1FB002003F0DEFBDC2003F0DBFB0020BB
:1028700003F0D8FBB82003F0E1FB002003F0D2FB0B
:10288000002003F0CFFB002003F0CCFB002003F07E
:10289000C9FB002003F0C6FB002003F0C3FB0020AF
:1028A00003F0C0FB002003F0BDFBBA2003F0C6FB21
:1028B000242003F0B7FB002003F0B4FB002003F05A
:1028C000B1FB002003F0AEFBC12003F0B7FB2020DA
:1028D00003F0A8FB002003F0A5FB542003F0A2FBAB
:1028E000002003F09FFBFF2003F09CFB002003F07F
:1028F00099FBC22003F0A2FB0A2003F093FB002007
:1029000003F090FB042003F08DFB002003F08AFB12
:10291000C32003F093FB3C2003F084FB002003F072
:1029200081FB3A2003F07EFB002003F07BFB392083
:1029300003F078FB002003F075FB372003F072FBF7
:10294000002003F06FFB3C2003F06CFB002003F041
:1029500069FB362003F066FB002003F063FB3220A6
:1029600003F060FB002003F05DFB2F2003F05AFB17
:10297000002003F057FB2C2003F054FB002003F051
:1029800051FB292003F04EFB002003F04BFB2620D7
:1029900003F048FB002003F045FB242003F042FB3A
:1029A000002001E0AC03002003F03CFB242003F0F6
:1029B00039FB002003F036FB232003F033FB00201B
:1029C00003F030FB3C2003F02DFB002003F02AFB3A
:1029D000362003F027FB002003F024FB322003F015
:1029E00021FB002003F01EFB2F2003F01BFB002027
:1029F00003F018FB2C2003F015FB002003F012FB62
:102A0000292003F00FFB002003F00CFB262003F02D
:102A100009FB002003F006FB242003F003FB002049
:102A200003F000FB242003F0FDFA002003F0FAFA83
:102A3000232003F0F7FA002003F0F4FAC42003F097
:102A4000FDFA622003F0EEFA002003F0EBFA052015
:102A500003F0E8FA002003F0E5FA842003F0E2FA3C
:102A6000002003F0DFFAF02003F0DCFA002003F08E
:102A7000D9FA182003F0D6FA002003F0D3FAA420E4
:102A800003F0D0FA002003F0CDFA182003F0CAFAC0
:102A9000002003F0C7FA502003F0C4FA002003F02E
:102AA000C1FA0C2003F0BEFA002003F0BBFA172095
:102AB00003F0B8FA002003F0B5FA952003F0B2FA5B
:102AC000002003F0AFFAF32003F0ACFA002003F08B
:102AD000A9FAE62003F0A6FA002003F0A3FAC52025
:102AE00003F0ACFA322003F09DFA002003F09AFACA
:102AF000442003F097FA002003F094FA652003F0D5
:102B000091FA002003F08EFA762003F08BFA002071
:102B100003F088FA882003F085FA002003F082FA97
:102B2000C62003F08BFA202003F07CFA002003F08B
:102B300079FA172003F076FA002003F073FA0120E7
:102B400003F070FA002003F06DFAC72003F076FA64
:102B5000002003F067FA002003F064FA002003F07D
:102B600061FA002003F05EFAC82003F067FA002043
:102B700003F058FA002003F055FA002003F052FA4F
:102B8000002003F04FFAC92003F058FA002003F0A8
:102B900049FA002003F046FA002003F043FA00202F
:102BA00003F040FA002003F03DFA002003F03AFA67
:102BB000002003F037FA002003F034FA002003F07D
:102BC00031FA002003F02EFA002003F02BFA002047
:102BD00003F028FA002003F025FA002003F022FA7F
:102BE000002003F01FFA002003F01CFAE02003F09D
:102BF00025FA162003F016FA002003F013FA1C2021
:102C000003F010FA002003F00DFA212003F00AFA75
:102C1000002003F007FA362003F004FA002003F046
:102C200001FA462003F0FEF9002003F0FBF95220E0
:102C300003F0F8F9002003F0F5F9642003F0F2F94D
:102C4000002003F0EFF97A2003F0ECF9002003F004
:102C5000E9F98B2003F0E6F9002003F0E3F999206D
:102C600003F0E0F9002003F0DDF9A82003F0DAF921
:102C7000002003F0D7F9B92003F0D4F9002003F0C5
:102C8000D1F9C42003F0CEF9002003F0CBF9CA201B
:102C900003F0C8F9002003F0C5F9D22003F0C2F90F
:102CA000002003F0BFF9D92003F0BCF9002003F0A5
:102CB000B9F9E02003F0B6F9002003F0B3F9F320EE
:102CC00003F0B0F9002003F0ADF9E12003F0B6F90C
:102CD000162003F0A7F9002003F0A4F91C2003F04C
:102CE000A1F9002003F09EF9222003F09BF90020B7
:102CF00003F098F9362003F095F9002003F092F9DB
:102D0000452003F08FF9002003F08CF9522003F0E6
:102D100089F9002003F086F9642003F083F900208C
:102D200003F080F97A2003F07DF9002003F07AF9AE
:102D30008B2003F077F9002003F074F9992003F059
:102D400071F9002003F06EF9A82003F06BF9002060
:102D500003F068F9B92003F065F9002003F062F987
:102D6000C42003F05FF9002003F05CF9CA2003F0EF
:102D700059F9002003F056F9D22003F053F900204E
:102D800003F050F9D82003F04DF9002003F04AF980
:102D9000E02003F047F9002003F044F9F32003F0AA
:102DA00041F9002003F03EF9E22003F047F9052045
:102DB00003F038F9002003F035F90B2003F032F965
:102DC000002003F02FF91B2003F02CF9002003F062
:102DD00029F9342003F026F9002003F023F94420D8
:102DE00003F020F9002003F01DF94F2003F01AF939
:102DF000002003F017F9612003F014F9002003F01C
:102E000011F9792003F00EF9002003F00BF9882066
:102E100003F008F9002003F005F9972003F002F908
:102E2000002003F0FFF8A62003F0FCF8002003F0D8
:102E3000F9F8B72003F0F6F8002003F0F3F8C22009
:102E400003F0F0F8002003F0EDF8C72003F0EAF8F3
:102E5000002003F0E7F8D12003F0E4F8002003F0AD
:102E6000E1F8D62003F0DEF8002003F0DBF8DD20E7
:102E700003F0D8F8002003F0D5F8F32003F0D2F8DF
:102E8000002003F0CFF8E32003F0D8F8052003F08A
:102E9000C9F8002003F0C6F80A2003F0C3F80020A8
:102EA00003F0C0F81C2003F0BDF8002003F0BAF8CE
:102EB000332003F0B7F8002003F0B4F8442003F007
:102EC000B1F8002003F0AEF8502003F0ABF800207A
:102ED00003F0A8F8622003F0A5F8002003F0A2F8A0
:102EE000782003F09FF8002003F09CF8882003F07E
:102EF00099F8002003F096F8972003F093F800204B
:102F000003F090F8A62003F08DF8002003F08AF873
:102F1000B72003F087F8002003F084F8C22003F004
:102F200081F8002003F07EF8C72003F07BF8002032
:102F300003F078F8D12003F075F8002003F072F860
:102F4000D52003F06FF8002003F06CF8DD2003F0CB
:102F500069F8002003F066F8F32003F063F800201E
:102F600003F060F8E42003F069F8012003F05AF858
:102F7000002003F057F8012003F054F8002003F07C
:102F800051F8022003F04EF8002003F04BF82A20FD
:102F900003F048F8002003F045F83C2003F042F825
:102FA000002003F03FF84B2003F03CF8002003F032
:102FB00039F85D2003F036F8002003F033F8742070
:102FC00003F030F8002003F02DF8842003F02AF8F5
:102FD000002003F027F8932003F024F8002003F0EA
:102FE00021F8A22003F01EF8002003F01BF8B32004
:102FF00003F018F8002003F015F8BE2003F012F8D3
:10300000002003F00FF8C42003F00CF8002003F0B8
:1030100009F8CD2003F006F8002003F003F8D320D0
:1030200003F000F8002002F0FDFFDD2002F0FAFFBF
:10303000002002F0F7FFF32002F0F4FF002002F07E
:10304000F1FFE52002F0FAFF002002F0EBFF002084
:1030500002F0E8FF002002F0E5FF002002F0E2FFAE
:10306000022002F0DFFF002002F0DCFF292002F046
:10307000D9FF002002F0D6FF3C2002F0D3FF002051
:1030800002F0D0FF4B2002F0CDFF002002F0CAFF7B
:103090005D2002F0C7FF002002F0C4FF742002F0A0
:1030A000C1FF002002F0BEFF842002F0BBFF002021
:1030B00002F0B8FF932002F0B5FF002002F0B2FF4B
:1030C000A22002F0AFFF002002F0ACFFB32002F01C
:1030D000A9FF002002F0A6FFBE2002F0A3FF0020FF
:1030E00002F0A0FFC42002F09DFF002002F09AFF32
:1030F000CD2002F097FF002002F094FFD32002F0D1
:1031000091FF002002F08EFFDC2002F08BFF0020F8
:1031100002F088FFF32002F085FF002002F082FF1A
:10312000E62002F08BFF112002F07CFF002002F06D
:1031300079FF342002F076FF002002F073FF562062
:1031400002F070FF002002F06DFF762002F06AFFAF
:10315000002002F067FF772002F064FF002002F0F9
:1031600061FF662002F05EFF002002F05BFF882016
:1031700002F058FF002002F055FF992002F052FFA4
:10318000002002F04FFFBB2002F04CFF002002F0B5
:1031900049FF992002F046FF002002F043FF66201D
:1031A00002F040FF002002F03DFF552002F03AFF00
:1031B000002002F037FF552002F034FF002002F01B
:1031C00031FF452002F02EFF002002F02BFF4320AC
:1031D00002F028FF002002F025FF442002F022FF29
:1031E000002002F01FFFE72002F028FF322002F04B
:1031F00019FF002002F016FF552002F013FF0020F7
:1032000002F010FF762002F00DFF002002F00AFF0E
:10321000662002F007FF002002F004FF672002F0A2
:1032200001FF002002F0FEFE672002F0FBFE0020FE
:1032300002F0F8FE872002F0F5FE002002F0F2FE18
:10324000992002F0EFFE002002F0ECFEBB2002F01D
:10325000E9FE002002F0E6FE992002F0E3FE0020E5
:1032600002F0E0FE772002F0DDFE002002F0DAFE40
:10327000442002F0D7FE002002F0D4FE562002F0D7
:10328000D1FE002002F0CEFE232002F0CBFE002073
:1032900002F0C8FE332002F0C5FE002002F0C2FE9C
:1032A000452002F0BFFE002002F0BCFEE82002F044
:1032B000C5FE002002F0B6FE002002F0B3FE992009
:1032C00002F0B0FE002002F0ADFE872002F0AAFE60
:1032D000002002F0A7FE882002F0A4FE002002F0E9
:1032E000A1FE772002F09EFE002002F09BFE6620E9
:1032F00002F098FE002002F095FE882002F092FE77
:10330000002002F08FFEAA2002F08CFE002002F0C6
:1033100089FEBB2002F086FE002002F083FE992089
:1033200002F080FE002002F07DFE662002F07AFEB0
:10333000002002F077FE552002F074FE002002F01B
:1033400071FE552002F06EFE002002F06BFE44205C
:1033500002F068FE002002F065FE442002F062FEEA
:10336000002002F05FFE552002F05CFE002002F01B
:1033700059FEE92002F062FEAA2002F053FE00206E
:1033800002F050FE002002F04DFE002002F04AFE46
:10339000002002F053FEAA2002F044FECF2002F0EB
:1033A0004DFE002002F03EFE002002F03BFE002019
:1033B00002F038FE002002F035FE002002F032FE5E
:1033C000002002F02FFE002002F02CFE002002F070
:1033D00029FE002002F026FE002002F023FE00203D
:1033E00002F020FE002002F01DFE002002F01AFE76
:1033F000002002F017FE002002F014FE002002F070
:1034000011FE002002F00EFEF02002F017FE002058
:1034100002F008FE502002F005FE002002F002FE3D
:10342000002002F0FFFD002002F0FCFDF32002F07E
:1034300005FE002002F0F6FDF92002F0FFFD062057
:1034400002F0F0FD102002F0EDFD292002F0EAFD6F
:10345000002002F0E7FD3A2002F0F0FD552002F0D6
:10346000E1FD112002F0EAFD642003F08FFC292029
:1034700002F0E4FD352002F0E1FD002002F0D2FD73
:10348000512002F0DBFDFF2002F0CCFD532002F0C2
:10349000D5FD2C2002F0C6FD552002F0CFFD822084
:1034A00002F0C0FD2C2002F0C9FD02F0E9B8FE4890
:1034B000808845F2105188427ED155214FF47040EA
:1034C00002F0D2FDAA214FF2010002F0CDFD5221FF
:1034D0004FF2020002F0C8FD08214FF2030002F093
:1034E000C3FD01214FF2040002F0BEFD0D214FF497
:1034F000304002F0B9FD0D214BF2010002F0B4FDA5
:103500000D214BF2020002F0AFFD34214FF43640A2
:1035100002F0AAFD34214BF2016002F0A5FD342136
:103520004BF2026002F0A0FD0D214FF4314002F099
:103530009BFD0D214BF2011002F096FD0D214BF287
:10354000021002F091FD34214FF4374002F08CFD5F
:1035500034214BF2017002F087FD34214BF20270EE
:1035600002F082FD00214FF4324002F07DFD002187
:103570004BF2012002F078FD00214BF2022002F014
:1035800073FD24214FF4384002F06EFD24214BF6E8
:10359000010002F069FD24214BF6020002F064FDF7
:1035A00001214FF43F4002F05FFD0F214FF4334003
:1035B00002F05AFD0F2100E0FEE34BF2013002F071
:1035C00053FD0F214BF2023002F04EFD34214FF437
:1035D000394002F049FD34214BF6011002F044FD60
:1035E00034214BF6021002F03FFD08214FF4354024
:1035F00002F03AFD08214BF2015002F035FD08219E
:103600004BF2025002F030FD03214FF4424002F031
:103610002BFD24214FF43A4002F026FD24214BF6E5
:10362000012002F021FD24214BF6022002F01CFDB6
:1036300000214FF43C4002F017FD78214BF6014089
:1036400002F012FD00214BF6024002F00DFD0021B8
:103650004FF43D4002F008FD78214BF6015002F096
:1036600003FD00214BF6025002F0FEFC00214FF456
:103670003E4002F0F9FC64214BF6016002F0F4FCDC
:1036800000214FF4514002F0EFFC33214DF20110C4
:1036900002F0EAFC00214DF2021002F0E5FC3421B8
:1036A0004DF2031002F0E0FC00214DF2041002F094
:1036B000DBFC3A214DF2051002F0D6FC00214DF260
:1036C000061002F0D1FC4A214DF2071002F0CCFCAA
:1036D00000214DF2081002F0C7FC5C214DF20910E8
:1036E00002F0C2FC00214DF20A1002F0BDFC812163
:1036F0004DF20B1002F0B8FC00214DF20C1002F05C
:10370000B3FCA6214DF20D1002F0AEFC00214DF2EB
:103710000E1002F0A9FCE5214DF20F1002F0A4FCFE
:1037200001214DF2101002F09FFC13214DF21110F7
:1037300002F09AFC01214DF2121002F095FC542186
:103740004DF2131002F090FC01214DF2141002F022
:103750008BFC82214DF2151002F086FC01214DF206
:10376000161002F081FCCA214DF2171002F07CFC09
:1037700002214DF2181002F077FC00214DF21910D1
:1037800002F072FC02214DF21A1002F06DFC0121D0
:103790004DF21B1002F068FC02214DF21C1002F0E9
:1037A00063FC34214DF21D1002F05EFC02214DF24B
:1037B0001E1002F059FC67214DF21F1002F054FC5C
:1037C00002214DF2201002F04FFC84214DF2211015
:1037D00002F04AFC02214DF2221002F045FCA42125
:1037E0004DF2231002F040FC02214DF2241002F0B1
:1037F0003BFCB7214DF2251002F036FC02214DF2C0
:10380000261002F031FCCF214DF2271002F02CFCE3
:1038100002214DF2281002F027FCDE214DF2291082
:1038200002F022FC02214DF22A1002F01DFCF221CE
:103830004DF22B1002F018FC02214DF22C1002F078
:1038400013FCFE214DF22D1002F00EFC03214DF26F
:103850002E1002F009FC10214DF22F1002F004FC92
:1038600003214DF2301002F0FFFB33214DF23110F5
:1038700002F0FAFB03214DF2321002F0F5FB6D214C
:103880004DF2331002F0F0FB00214FF4524002F0F1
:10389000EBFB33214DF2012002F0E6FB00214DF25B
:1038A000022002F0E1FB01E0AC03002034214DF2E4
:1038B000032002F0D9FB00214DF2042002F0D4FBDA
:1038C0003A214DF2052002F0CFFB00214DF20620F7
:1038D00002F0CAFB4A214DF2072002F0C5FB00218D
:1038E0004DF2082002F0C0FB5C214DF2092002F0ED
:1038F000BBFB00214DF20A2002F0B6FB81214DF204
:103900000B2002F0B1FB00214DF20C2002F0ACFBC9
:10391000A6214DF20D2002F0A7FB00214DF20E2052
:1039200002F0A2FBE5214DF20F2002F09DFB0121E8
:103930004DF2102002F098FB13214DF2112002F0FD
:1039400093FB01214DF2122002F08EFB54214DF227
:10395000132002F089FB01214DF2142002F084FBB8
:1039600082214DF2152002F07FFB01214DF216203D
:1039700002F07AFBCA214DF2172002F075FB0221FA
:103980004DF2182002F070FB00214DF2192002F0D8
:103990006BFB02214DF21A2002F066FB01214DF271
:1039A0001B2002F061FB02214DF21C2002F05CFBA7
:1039B00034214DF21D2002F057FB02214DF21E2052
:1039C00002F052FB67214DF21F2002F04DFB022155
:1039D0004DF2202002F048FB84214DF2212002F01C
:1039E00043FB02214DF2222002F03EFBA4214DF2C6
:1039F000232002F039FB02214DF2242002F034FB97
:103A0000B7214DF2252002F02FFB02214DF2262096
:103A100002F02AFBCF214DF2272002F025FB0221E4
:103A20004DF2282002F020FBDE214DF2292002F089
:103A30001BFB02214DF22A2002F016FBF2214DF26F
:103A40002B2002F011FB02214DF22C2002F00CFB86
:103A5000FE214DF22D2002F007FB03214DF22E2016
:103A600002F002FB10214DF22F2002F0FDFA03219B
:103A70004DF2302002F0F8FA33214DF2312002F0FD
:103A8000F3FA03214DF2322002F0EEFA6D214DF2ED
:103A9000332002F0E9FA00214FF4534002F0E4FA37
:103AA00033214DF2013002F0DFFA00214DF20230F5
:103AB00002F0DAFA34214DF2033002F0D5FA002197
:103AC0004DF2043002F0D0FA3A214DF2053002F006
:103AD000CBFA00214DF2063002F0C6FA4A214DF22F
:103AE000073002F0C1FA00214DF2083002F0BCFAB2
:103AF0005C214DF2093002F0B7FA00214DF20A3094
:103B000002F0B2FA81214DF20B3002F0ADFA002141
:103B10004DF20C3002F0A8FAA6214DF20D3002F061
:103B2000A3FA00214DF20E3002F09EFAE5214DF28B
:103B30000F3002F099FA01214DF2103002F094FAA0
:103B400013214DF2113002F08FFA01214DF21230A3
:103B500002F08AFA54214DF2133002F085FA012165
:103B60004DF2143002F080FA82214DF2153002F04D
:103B70007BFA01214DF2163002F076FACA214DF29D
:103B8000173002F071FA02214DF2183002F06CFA8F
:103B900000214DF2193002F067FA02214DF21A307D
:103BA00002F062FA01214DF21B3002F05DFA0221AF
:103BB0004DF21C3002F058FA34214DF21D3002F063
:103BC00053FA02214DF21E3002F04EFA67214DF2F7
:103BD0001F3002F049FA02214DF2203002F044FA7F
:103BE00084214DF2213002F03FFA02214DF22230C1
:103BF00002F03AFAA4214DF2233002F035FA022104
:103C00004DF2243002F030FAB7214DF2253002F0A7
:103C10002BFA02214DF2263002F026FACF214DF286
:103C2000273002F021FA02214DF2283002F01CFA6E
:103C3000DE214DF2293002F017FA02214DF22A302E
:103C400002F012FAF2214DF22B3002F00DFA0221AD
:103C50004DF22C3002F008FAFE214DF22D3002F028
:103C600003FA03214DF22E3002F0FEF910214DF23D
:103C70002F3002F0F9F903214DF2303002F0F4F95F
:103C800033214DF2313002F0EFF903214DF23230A1
:103C900002F0EAF96D214DF2333002F0E5F900212E
:103CA0004FF4544002F0E0F933214DF2014002F0AC
:103CB000DBF900214DF2024002F0D6F934214DF239
:103CC000034002F0D1F900214DF2044002F0CCF99A
:103CD0003A214DF2054002F0C7F900214DF20640AD
:103CE00002F0C2F94A214DF2074002F0BDF900216D
:103CF0004DF2084002F0B8F95C214DF2094002F0A3
:103D0000B3F900214DF20A4002F0AEF981214DF2E3
:103D10000B4002F0A9F900214DF20C4002F0A4F989
:103D2000A6214DF20D4002F09FF900214DF20E4008
:103D300002F09AF9E5214DF20F4002F095F90121C8
:103D40004DF2104002F090F913214DF2114002F0B3
:103D50008BF901214DF2124002F086F954214DF207
:103D6000134002F081F901214DF2144002F07CF978
:103D700082214DF2154002F077F901214DF21640F3
:103D800002F072F9CA214DF2174002F06DF90221DA
:103D90004DF2184002F068F900214DF2194002F08E
:103DA00063F902214DF21A4002F05EF901214DF251
:103DB0001B4002F059F900E004E302214DF21C40DF
:103DC00002F052F934214DF21D4002F04DF902216A
:103DD0004DF21E4002F048F967214DF21F4002F0FB
:103DE00043F902214DF2204002F03EF984214DF2C8
:103DF000214002F039F902214DF2224002F034F95B
:103E0000A4214DF2234002F02FF902214DF224406B
:103E100002F02AF9B7214DF2254002F025F90221DE
:103E20004DF2264002F020F9CF214DF2274002F05A
:103E30001BF902214DF2284002F016F9DE214DF265
:103E4000294002F011F902214DF22A4002F00CF94A
:103E5000F2214DF22B4002F007F902214DF22C40E5
:103E600002F002F9FE214DF22D4002F0FDF803218F
:103E70004DF22E4002F0F8F810214DF22F4002F0E2
:103E8000F3F803214DF2304002F0EEF833214DF209
:103E9000314002F0E9F803214DF2324002F0E4F83B
:103EA0006D214DF2334002F0DFF800214FF4554010
:103EB00002F0DAF833214DF2015002F0D5F800217A
:103EC0004DF2025002F0D0F834214DF2035002F0CE
:103ED000CBF800214DF2045002F0C6F83A214DF221
:103EE000055002F0C1F800214DF2065002F0BCF876
:103EF0004A214DF2075002F0B7F800214DF2085068
:103F000002F0B2F85C214DF2095002F0ADF8002148
:103F10004DF20A5002F0A8F881214DF20B5002F048
:103F2000A3F800214DF20C5002F09EF8A6214DF2AC
:103F30000D5002F099F800214DF20E5002F094F865
:103F4000E5214DF20F5002F08FF801214DF2105093
:103F500002F08AF813214DF2115002F085F8012188
:103F60004DF2125002F080F854214DF2135002F03D
:103F70007BF801214DF2145002F076F882214DF2C7
:103F8000155002F071F801214DF2165002F06CF854
:103F9000CA214DF2175002F067F802214DF2185075
:103FA00002F062F800214DF2195002F05DF8022192
:103FB0004DF21A5002F058F801214DF21B5002F058
:103FC00053F802214DF21C5002F04EF834214DF20C
:103FD0001D5002F049F802214DF21E5002F044F843
:103FE00067214DF21F5002F03FF802214DF22050A0
:103FF00002F03AF884214DF2215002F035F8022106
:104000004DF2225002F030F8A4214DF2235002F07C
:104010002BF802214DF2245002F026F8B7214DF280
:10402000255002F021F802214DF2265002F01CF832
:10403000CF214DF2275002F017F802214DF22850FF
:1040400002F012F8DE214DF2295002F00DF80221A3
:104050004DF22A5002F008F8F2214DF22B5002F0F6
:1040600003F802214DF22C5001F0FEFFFE214DF22B
:104070002D5001F0F9FF03214DF22E5001F0F4FF15
:1040800010214DF22F5001F0EFFF03214DF230507F
:1040900001F0EAFF33214DF2315001F0E5FF032139
:1040A0004DF2325001F0E0FF6D214DF2335001F03E
:1040B000DBFF00214FF4564001F0D6FF33214DF2D3
:1040C000016001F0D1FF00214DF2026001F0CCFF50
:1040D00034214DF2036001F0C7FF00214DF204606E
:1040E00001F0C2FF3A214DF2056001F0BDFF002151
:1040F0004DF2066001F0B8FF4A214DF2076001F071
:10410000B3FF00214DF2086001F0AEFF5C214DF2DB
:10411000096001F0A9FF00214DF20A6001F0A4FF3F
:1041200081214DF20B6001F09FFF00214DF20C60E8
:1041300001F09AFFA6214DF20D6001F095FF0021DC
:104140004DF20E6001F090FFE5214DF20F6001F09D
:104150008BFF01214DF2106001F086FF13214DF21B
:10416000116001F081FF01214DF2126001F07CFF2E
:1041700054214DF2136001F077FF01214DF21460DC
:1041800001F072FF82214DF2156001F06DFF0121F7
:104190004DF2166001F068FFCA214DF2176001F080
:1041A00063FF02214DF2186001F05EFF00214DF225
:1041B000196001F059FF02214DF21A6001F054FF1D
:1041C00001214DF21B6001F04FFF02214DF21C60F6
:1041D00001F04AFF34214DF21D6001F045FF02213C
:1041E0004DF21E6001F040FF67214DF21F6001F0AB
:1041F0003BFF02214DF2206001F036FF84214DF299
:10420000216001F031FF02214DF2226001F02CFF0C
:10421000A4214DF2236001F027FF02214DF224601A
:1042200001F022FFB7214DF2256001F01DFF0221B0
:104230004DF2266001F018FFCF214DF2276001F00A
:1042400013FF02214DF2286001F00EFFDE214DF236
:10425000296001F009FF02214DF22A6001F004FFFC
:10426000F2214DF22B6001F0FFFE02214DF22C6095
:1042700001F0FAFEFE214DF22D6001F0F5FE032162
:104280004DF22E6001F0F0FE10214DF22F6001F092
:10429000EBFE03214DF2306001F0E6FE33214DF2DA
:1042A000316001F0E1FE03214DF2326001F0DCFEED
:1042B0006D214DF2336001F0D7FE55214FF470406F
:1042C00001F0D2FEAA214FF2010001F0CDFE5221F1
:1042D0004FF2020001F0C8FE08214FF2030001F086
:1042E000C3FE00214FF2040001F0BEFECC214FF4CA
:1042F000314001F0B9FE00214BF2011001F0B4FE93
:1043000005214FF4364001F0AFFE70214FF43740E5
:1043100001F0AAFE70214BF2017001F0A5FE01210F
:104320004FF4384001F0A0FE03214BF6010001F0EC
:104330009BFE03214BF6020001F096FE03214BF693
:10434000030001F091FE02214FF43C4001F08CFE8D
:1043500000214BF6014001F087FE00214BF60240A0
:1043600001F082FED0214FF4494001F07DFE022190
:104370004CF6011001F078FE50214CF6021001F0CD
:1043800073FE50214CF6031001F06EFE50214CF6E6
:10439000041001F069FE00214FF4545001F064FE56
:1043A00055214FF4685001F05FFE4FF4885001F042
:1043B00045FE782002F00AFD4FF4245001F03EFE45
:1043C00001F05EB9FE48808849F2253188427DD1EE
:1043D00047F6F001E52001F047FE4FF4807101201F
:1043E00001F042FE4FF4E061022001F03DFE41F297
:1043F0003001032001F038FE0021042001F034FEDA
:1044000040F20221082001F02FFE0021092001F0D6
:104410002BFE00210A2001F027FE00210C2001F0D4
:1044200023FE00210D2001F01FFE00210F2001F0CE
:104430001BFE0021102001F017FE0721112001F0C2
:1044400013FE0021122001F00FFE0021132001F0C5
:104450000BFE0021072001F007FE41F290611020C1
:1044600001F002FE40F22721112001F0FDFD9D2107
:10447000122001F0F9FD4FF4C851132001F0F4FDB2
:104480002521292001F0F0FD0D212B2001F0ECFD6C
:104490000721302001F0E8FD40F20331312001F026
:1044A000E3FD0321322001F0DFFD40F2062135203B
:1044B00001F0DAFD0821362001F0D6FD40F2064178
:1044C000372001F0D1FD4FF4417100E058E0382071
:1044D00001F0CAFD0721392001F0C6FD40F202615A
:1044E0003C2001F0C1FD08213D2001F0BDFD00216F
:1044F000502001F0B9FDEF21512001F0B5FD002160
:10450000522001F0B1FD40F23F11532001F0ACFD0B
:104510004FF42741602001F0A7FD0121612001F047
:10452000A3FD00216A2001F09FFD0021802001F001
:104530009BFD0021812001F097FD0021822001F0E8
:1045400093FD0021832001F08FFD0021842001F0E4
:104550008BFD0021852001F087FD1021902001F0C6
:1045600083FD4FF4C061922001F07EFD40F23311D3
:10457000072001F079FD2221002001F075FD1FE7E1
:104580008F48808849F2283188427DD141F28F01DD
:10459000EC2001F069FD41F23421EF2001F064FDCF
:1045A0004FF48071012001F05FFD4FF4E0610220C3
:1045B00001F05AFD41F23001032001F055FD0021C8
:1045C000042001F051FD40F20221082001F04CFDD1
:1045D0000021092001F048FD00210A2001F044FDDE
:1045E00001210C2001F040FD00210D2001F03CFDD7
:1045F00000210F2001F038FD0021102001F034FDD2
:104600000721112001F030FD0021122001F02CFDC6
:104610000021132001F028FD0121072001F024FDD5
:10462000322002F0B3FB41F29041102001F01CFD5A
:1046300040F22721112001F017FD322002F0A6FBE5
:104640008A21122001F010FD322002F09FFB4FF46E
:10465000D051132001F008FD0621292001F004FDAE
:104660000D212B2001F000FD322002F08FFB0021F4
:10467000202001F0F9FC0021212001F0F5FC32207E
:1046800002F084FB002100E075E0302001F0ECFC3A
:1046900040F20461312001F0E7FC40F205313220A4
:1046A00001F0E2FC0021352001F0DEFC40F609417A
:1046B000362001F0D9FC4FF40171372001F0D4FC11
:1046C00040F20131382001F0CFFC40F2077139206F
:1046D00001F0CAFC00213C2001F0C6FC40F60A2192
:1046E0003D2001F0C1FC322002F050FB002150209F
:1046F00001F0BAFCEF21512001F0B6FC002152205C
:1047000001F0B2FC40F23F11532001F0ADFC4FF438
:104710002741602001F0A8FC0121612001F0A4FCE8
:1047200000216A2001F0A0FC0021802001F09CFC07
:104730000021812001F098FC0021822001F094FCEE
:104740000021832001F090FC0021842001F08CFCEA
:104750000021852001F088FC1021902001F084FCCC
:104760004FF4C061922001F07FFC40F2331107202A
:1047700001F07AFC24E61248808849F22031884210
:104780007ED10021084601F06FFC4FF480710120BA
:1047900001F06AFC4FF4E061022001F065FC41F297
:1047A0003001032001F060FC0021042001F05CFCDA
:1047B00040F20221082001F057FC0021092001E00D
:1047C000AC03002001F050FC00210A2001F04CFC59
:1047D00001210C2001F048FC00210D2001F044FCD7
:1047E00000210F2001F040FC322002F0CFFA40F20D
:1047F0000111072001F038FC322002F0C7FA4FF413
:104800008651102001F030FC0721112001F02CFC12
:104810004FF48871122001F027FC4FF4306113200F
:1048200001F022FC0021292001F01EFC44F21001BD
:104830002B2001F019FC0021502001F015FCEF2184
:10484000512001F011FC0021522001F00DFC40F23A
:104850003F11532001F008FC4FF41C51602001F07F
:1048600003FC0121612001F0FFFB00216A2001F01F
:10487000FBFB0021802001F0F7FB0021812000E0FC
:1048800030E001F0F1FB0021822001F0EDFB00217E
:10489000832001F0E9FB0021842001F0E5FB0021E9
:1048A000852001F0E1FB1021902001F0DDFB0021CB
:1048B000922001F0D9FB0121932001F0D5FB4FF4A8
:1048C0008871952001F0D0FB0021972001F0CCFBEE
:1048D0000021982001F0C8FB40F27311072001F07D
:1048E000C3FB6DE5FE48808849F2313188427DD1B5
:1048F00041F21401E72001F0B7FB4FF48071012071
:1049000001F0B2FB4FF40071022001F0ADFB41F267
:104910003801032001F0A8FB40F20221082001F039
:10492000A3FB0021092001F09FFB00210A2001F0D8
:104930009BFB00210C2001F097FB00210D2001F0D2
:1049400093FB00210F2001F08FFB0021102001F0CC
:104950008BFB0721112001F087FB0021122001F0C1
:1049600083FB0021132001F07FFBC82002F00EFA28
:1049700041F29061102001F077FB40F227211120D5
:1049800001F072FB322002F001FA0C21122001F03A
:104990006BFB322002F0FAF94FF40061132001F0B2
:1049A00063FB1121292001F05FFB0B212B2001F07B
:1049B0005BFB322002F0EAF90021202001F054FBD9
:1049C00040F23F11212001F04FFB0021302001F087
:1049D0004BFB4FF48371312001F046FB0021322064
:1049E00001F042FB4FF40171352000E064E001F07A
:1049F0003BFB41F20A61362001F036FB40F20771C1
:104A0000372001F031FB4FF48371382001F02CFB8B
:104A100040F20771392001F027FB40F202413C20AF
:104A200001F022FB40F60F413D2001F01DFB00216B
:104A3000502001F019FBEF21512001F015FB00215E
:104A4000522001F011FB40F23F11532001F00CFB0A
:104A50004FF41C51602001F007FB0121612001F09F
:104A600003FB00216A2001F0FFFA0021802001F001
:104A7000FBFA0021812001F0F7FA0021822001F0E9
:104A8000F3FA0021832001F0EFFA0021842001F0E5
:104A9000EBFA0021852001F0E7FA1021902001F0C7
:104AA000E3FA4FF4C061922001F0DEFA40F23311D4
:104AB000072001F0D9FA83E48948808845F208414B
:104AC00088427DD14FF48071012001F0CDFA4FF47E
:104AD000E061022001F0C8FA41F23001032001F048
:104AE000C3FA0021042001F0BFFA40F20721082098
:104AF00001F0BAFA0021092001F0B6FA00210A20DB
:104B000001F0B2FA00210C2001F0AEFA00210D20D4
:104B100001F0AAFA00210F2001F0A6FA142002F0F9
:104B200035F941F2B061102001F09EFA0121112007
:104B300001F09AFA0121172001F096FA4FF49C71C6
:104B4000122001F091FA4FF40061132001F08CFA69
:104B50000921292001F088FA09212A2001F084FA8C
:104B60000021A42001F080FA0021502001F07CFAFD
:104B7000EF21512001F078FA0021522001F074FA5F
:104B800040F23F11532001F06FFA4FF41C516020A6
:104B900001F06AFA0121612001F066FA00216A2021
:104BA00001F062FA0021802001F05EFA00218120EC
:104BB00001F05AFA0021822001F056FA002100E0AB
:104BC00024E0832001F050FA0021842001F04CFA07
:104BD0000021852001F048FA1321902001F044FAC9
:104BE0000021922001F040FA0321932001F03CFAC9
:104BF0004FF48871952001F037FA40F273110720C5
:104C000001F032FA322002F0C1F8B8E4344880886A
:104C100041F2055188427DD10021072001F024FA9C
:104C2000322002F0B3F84FF48E71122001F01CFA1A
:104C30000121A42001F018FA0F21082001F014FA34
:104C400008210A2001F010FA08210D2001F00CFAC9
:104C500040F20771302001F007FA0721312001F0FE
:104C600003FA40F20361322001F0FEF94FF4E061F3
:104C7000332001F0F9F940F20221342001F0F4F977
:104C80000221352001F0F0F941F60F71362001F0D4
:104C9000EBF940F20771372001F0E6F900213820E6
:104CA00001F0E2F90021392001F0DEF940F207714C
:104CB0003A2001F0D9F900213B2001F0D5F9072174
:104CC0003C2001F0D1F900213D2001F0CDF9322046
:104CD00002F05CF80121072001F0C6F9012101E092
:104CE000AC030020172001F0BFF9322002F04EF88B
:104CF0004FF4BD51102001F0B7F940F217211120F7
:104D000001F0B2F94FF48F71122001F0ADF94FF4B8
:104D1000706100E098E0132001F0A6F900212A203C
:104D200001F0A2F90A21292001F09EF94FF49F71A8
:104D3000122001F099F90021502001F095F9EF219E
:104D4000512001F091F90021522001F08DF940F23B
:104D50003F11532001F088F94FF41C51602001F0FD
:104D600083F90121612001F07FF900216A2001F01F
:104D70007BF90021802001F077F90021812001F0EA
:104D800073F90021822001F06FF90021832001F0E6
:104D90006BF90021842001F067F90021852001F0E2
:104DA00063F91321902001F05FF94FF440719220D4
:104DB00001F05AF90521932001F056F900219520C0
:104DC00001F052F90021972001F04EF900219820BE
:104DD00001F04AF94FF48071012001F045F94FF4D8
:104DE000E061022001F040F941F23801032001F0B6
:104DF0003BF90021042001F037F900210C2001F0DB
:104E000033F900210F2001F02FF90021202001F0BB
:104E10002BF90021212001F027F92121072001F0A1
:104E200023F9142001F0B2FF6121072001F01CF9E1
:104E3000142001F0ABFF40F27311072001F014F9C8
:104E4000142001F0A3FF95E4FE4880884BF2055141
:104E500088427CD10021084601F006F9002108466D
:104E600001F002F90021084601F0FEF80021084691
:104E700001F0FAF80121A42001F0F6F8142001F065
:104E800085FF4FF41C51602001F0EEF840F2022142
:104E9000082001F0E9F84FF40571302001F0E4F842
:104EA00043F21571312001F0DFF840F20461322045
:104EB00001F0DAF840F61661332001F0D5F842F23D
:104EC0001121342001F0D0F84FF4A851352001F021
:104ED000CBF848F20751362001F0C6F841F20741FD
:104EE000372001F0C1F841F20341382001F0BCF84D
:104EF0002021392001F0B8F81A21902001F0B4F8EF
:104F00000021102001F0B0F80721112001F0ACF8C9
:104F10000021122001F0A8F80021132001F0A4F8CC
:104F2000142001F033FF4FF4E661102001F09CF8EB
:104F300040F23711112001F097F8142001F026FFFC
:104F40004FF4DC71122001F08FF8142000E085E0AE
:104F500001F01CFF4FF47061132001F085F88021EF
:104F60002A2001F081F84821292001F07DF8142041
:104F700001F00CFF4FF48071012001F075F84FF43F
:104F8000E061022001F070F841F23801032001F0E5
:104F90006BF840F20221082001F066F800210A2097
:104FA00001F062F800210C2001F05EF800210D20D4
:104FB00001F05AF830210E2001F056F8002150205F
:104FC00001F052F8EF21512001F04EF8002152205B
:104FD00001F04AF840F23F11532001F045F84FF438
:104FE0001C51602001F040F80121612001F03CF8E3
:104FF00000216A2001F038F81121902001F034F8E6
:105000004FF4C061922001F02FF840F2024193204A
:1050100001F02AF80221942001F026F8142001F072
:10502000B5FE0121072001F01FF8142001F0AEFEAB
:105030006121072001F018F840F27311072001F0F8
:1050400013F80021202001F00FF80021212001F0A9
:105050000BF82221002001F007F811E3794880883D
:105060004CF2055188427CD10021084600F0FCFF3B
:105070000021084600F0F8FF142001F087FE00210F
:10508000084600F0F1FF0021084600F0EDFF002186
:10509000084600F0E9FF0021084600F0E5FF012185
:1050A000A42000F0E1FF142001F070FE4FF41C5129
:1050B000602000F0D9FF40F60601082000F0D4FF80
:1050C00040F20371302000F0CFFF0121312000F0C9
:1050D000CBFF0421322000F0C7FF4FF48171332051
:1050E00000F0C2FF4FF44071342000F0BDFF40F2E9
:1050F0000311352000F0B8FF1F21362000F0B4FF67
:1051000040F20371372000F0AFFF0121382000F09A
:10511000ABFF0421392000F0A7FF1521902000F0FB
:10512000A3FF4FF48261102000F09EFF40F2472160
:10513000112000F099FF4FF4DE71122000F094FF6F
:105140004FF46061132000F08FFF782001F01EFE05
:105150004FF48071012000F087FF4FF400710220AE
:1051600000E052E000F080FF41F23001032000F047
:105170007BFF08210A2000F077FF00210C2000F0BF
:1051800073FF20210E2000F06FFF00210F2000F0A0
:105190006BFF0021202000F067FF0021212000F09C
:1051A00063FF3D212A2000F05FFF142001F0EEFD97
:1051B0002D21292000F058FF0021502000F054FF3D
:1051C0004DF2EF01512000F04FFF0021522000F07E
:1051D0004BFF40F23F11532000F046FF00216120B9
:1051E00000F042FF00216A2000F03EFF4FF44071C2
:1051F000922000F039FF0521932000F035FF4FF495
:105200008071072000F030FF3AE20E48808844F2B7
:10521000315188427ED10121002000F025FF0A2073
:1052200001F0B4FD41F22861102000F01DFF0E21B5
:10523000122000F019FF40F63921132000F014FF6E
:105240000A2001E0AC03002001F0A0FD4021112064
:1052500000F00AFF5021152000F006FF0A2001F09F
:1052600095FD1E21122000F0FFFE0A2001F08EFDA8
:105270004FF4B151102000F0F7FE42F6392113200F
:1052800000F0F2FE0A2001F081FD4FF48071012050
:1052900000F0EAFE4FF44071022000F0E5FE41F21A
:1052A0003801032000F0E0FE40F20221082000F067
:1052B000DBFE08210A2000F0D7FE0021302000F09C
:1052C000D3FE40F20241312000F0CEFE4FF4837154
:1052D000322000F0C9FE40F20351332000F0C4FE3A
:1052E0004FF48271342000F0BFFE40F201313520CE
:1052F00000F0BAFE40F20771362000F0B5FE40F231
:105300000531372000F0B0FE4FF40271382000F074
:10531000ABFE00E03EE040F60B71392000F0A4FE49
:105320000221412000F0A0FE4FF41C51602000F04B
:105330009BFE0121612000F097FE4FF40471902044
:1053400000F092FE4FF48571922000F08DFE042152
:10535000932000F089FE4FF48071A02000F084FEBD
:105360000121072000F080FE2121072000F07CFEB3
:105370002321072000F078FE3321072000F074FE7F
:1053800040F23311072000F06FFE0021A02000F052
:105390006BFE75E1C048808844F2355188427CD16B
:1053A0003021152000F060FE10219A2000F05CFEF4
:1053B0002021112000F058FE43F22841102000F077
:1053C00053FE0221122000F04FFE41F2380113205B
:1053D00000F04AFE282001F0D9FC1221084600F016
:1053E00043FE282001F0D2FC43F22041102000F0BF
:1053F0003BFE43F23801132000F036FE462001F058
:10540000C5FC0021302000F02FFE40F20241312087
:1054100000F02AFE40F20731322000F025FE4FF462
:105420004171332000F020FE0421342000F01CFEE6
:1054300040F20141352000F017FE40F2077136209E
:1054400000F012FE40F20531372000F00DFE4FF45F
:10545000C261382000F008FE4FF4C261392000F02C
:1054600003FE4FF48071012000F0FEFD4FF4407107
:10547000022000F0F9FD41F23001032000F0F4FDBC
:1054800040F60801082000F0EFFD08210A2000F096
:10549000EBFD4FF41C51602000E033E000F0E4FD30
:1054A0000121612000F0E0FD4FF49F71902000F099
:1054B000DBFD4FF48071922000F0D6FD4FF4807137
:1054C000932000F0D1FD4FF44051A02000F0CCFD1E
:1054D0001021A32000F0C8FD0121072000F0C4FD29
:1054E0002121072000F0C0FD2321072000F0BCFD92
:1054F0003321072000F0B8FD40F23311072000F0FF
:10550000B3FDBDE06448808841F663118842F8D15C
:10551000E22000F093FD1D2000F084FD022000F049
:1055200081FD042000F07EFD642001F04FFCE020AE
:1055300000F084FD012000F075FD0A2001F026FC3A
:10554000E02000F07BFD032000F06CFD0C2001F05A
:105550001DFC012000F072FD0A2001F017FCE6207E
:1055600000F06CFD2F2000F05DFDFF2000F05AFDE3
:10557000FF2000F057FDB02000F060FD202000F07B
:1055800051FD002000F04EFD032000F04BFD40F2E5
:105590001F3000F047FD012000F044FD40F2DF1015
:1055A00000F040FD002000F03DFDB42000F046FD7D
:1055B000042000F037FD40F21F4000F033FD0020D2
:1055C00000F030FD2E2000F02DFD002000F02AFD1F
:1055D000002000F027FD002000F024FD002000F056
:1055E00021FDB62000F02AFD022000F01BFD4FF443
:1055F000037000F017FD002000F014FD172000F0EC
:1056000011FD152000F00EFD002000F00BFD002024
:1056100000F008FDF02000F011FD032000F002FD75
:10562000292000F00BFDD02000F008FD002000F044
:10563000F9FCBE2000F002FD052000F0F3FCFE2086
:1056400000F0F0FC012000F0EDFC002000F0EAFC8E
:10565000002000F0E7FC002000F0E4FCB82000F09F
:10566000EDFC032000F0DEFC012000F0DBFCBA20A2
:1056700000F0E4FC012000F0D5FC642000F0E8F824
:105680000020FCF785F80120044908604FF6FF7000
:10569000FCF748F821B000BDAC030020BC824042BA
:1056A00010B50246012000E050430B00A1F10104B7
:1056B000E1B2F9D110BD000008B5034800880090A0
:1056C000BDF8000008BD00008000006C2DE9F0412D
:1056D00005460E4600240027A04656480088A842EA
:1056E00003DD54484088B04202DC0020BDE8F08170
:1056F0003146284600F052FA4E48808849F241313E
:10570000884211D04B48808846F6040188420BD06D
:105710004848808845F21031884205D04548808845
:1057200041F66311884203D12E2000F087FC0DE082
:105730004048808845F21051884204D14FF43850D7
:1057400000F07CFC02E0222000F078FC39488088E0
:1057500049F22031884202D1022005F074FFFFF7A0
:10576000ABFF04463348808841F66311884201D17B
:105770002046BBE7022005F066FFFFF79DFF0446C9
:105780002C48808849F2413188420BD029488088D2
:1057900045F21031884205D02648808845F21051E4
:1057A00088420AD1022005F04EFFFFF785FF8046B0
:1057B000E7B24FF6FF7000EA07271E48808849F2DB
:1057C0002531884216D01B48808844F235518842E2
:1057D00010D018488088091F88420BD0154880884F
:1057E0004BF20551884205D0124880884CF2055191
:1057F000884201D1204679E70E48808849F241313C
:1058000088420BD00B48808845F21031884205D081
:105810000848808845F21051884207D1E012C00242
:10582000B91240EA411040EAE8205FE72046FBF762
:105830006BFF5BE7AC03002010B50446204600F088
:10584000FDFB052001F0C2FAFFF736FF10BD000096
:1058500070B52DED048B0446BE2000F0EFFB052053
:1058600000F0E0FB2046FAF7BFFD41EC190B9FED7D
:105870000E0B53EC102BFAF745FD41EC180BFAF721
:10588000C0FD85B2284600F0CDFB012000F0CAFB28
:10589000FF2000F0C7FB002000F0C4FB002000F058
:1058A000C1FBBDEC048B70BD66666666666604402F
:1058B000F0B5054600240027B748807901280BD1B0
:1058C000B548808846F60401884205D0B2488088F1
:1058D00041F66311884208D1AF488079F0B9AE48EB
:1058E000808841F66311884218D1082D15D2DFE86F
:1058F00005F00406080A0C0E101206250DE0072517
:105900000BE0042509E0052507E0012505E0002559
:1059100003E0032501E0022500BF00BF9E48808808
:1059200049F24131884217D09B48808846F60401ED
:10593000884211D09848808845F2103188420BD0B7
:105940009548808845F21051884205D09248808859
:1059500041F6631188427DD1082D1CD2DFE805F0A5
:105960000406090C0F12151800BF14E044F080045F
:1059700011E044F040040EE044F0C0040BE044F0B9
:10598000200408E044F0600405E044F0A00402E0D4
:1059900044F0E00400BF00BF7F48808845F210510A
:1059A000884202D14FF4585700E036277A48808861
:1059B00045F2103188420DD07748808845F2105169
:1059C000884207D07448808841F66311884201D02C
:1059D00044F008047048808846F60401884201D1EA
:1059E00044F002042146384600F03EFB6A488088B5
:1059F00041F6631188421DD004F0200068B166486A
:105A0000008865494988884214DA634806884088D6
:105A100061490880084646800CE05F4800885E497E
:105A20004988884206DD5C48068840885A490880D3
:105A3000084646805848808845F21051884254D123
:105A40005549488900F0FAFA002000F0EBFA524973
:105A5000498900E078E0491C88B200F0EFFA0020A4
:105A600000F0E0FA4C494989891C88B200F0E6FA56
:105A700049490988491EC1F30F2000F0D3FA46496D
:105A80004989C91C88B200F0D9FA43490978491EEE
:105A9000C8B200F0C7FA4049888900F0CFFA002068
:105AA00000F0C0FA3C498989491C88B200F0C6FA66
:105AB000002000F0B7FA38498989891C88B200F0C3
:105AC000BDFA35494988491EC1F30F2000F0AAFAF2
:105AD00031498989C91C88B200F0B0FA2E49897809
